:0300000002004CAF
:200008000000E2FBEAF2802C0000E0FBEAF08024E6B50202EBF62200E2B50202EBF22200DE
:20002800E0B50202EBF02230F6E0A88220F5D3EAC6F582228B822230F6E6A88220F5D980EE
:01004800CFE8
:0300A5000200490D
:030049000200A80A
:2000A80075B20343800390E600E4F090012C1200D990E60B7403F0638001638002E4F508C4
:1100C800F509AE08AF0974012EF508E43FF50980F189
:06007B00E478FFF6D8FD59
:200059007900E94400601B7A0090012E780075921CE493F2A308B800020592D9F4DAF2751F
:0200790092FFF4
:200081007800E84400600A790075921CE4F309D8FC7800E84400600C7900901C00E4F0A355
:0400A100D8FCD9FAB4
:2000D900AE82AF8390E600E05418C423541F70057CB1FD801C90E600E05418C423541FFB37
:2000F900BB01067A617B0180047AC27B028A048B058C0A8D0BE50A24FFFAE50B34FFFB8A91
:110119000A8B0BEA4B70EE1EBEFF011FEE4F70E122F7
:0D004C0075810B12012AE582600302004954
:04012A0075820022B8
:00000001FF
